S01B00006275696C642F72656C656173652F7A69676265652E73333714
S21400600008100020E99D000009E600009B27030019
S2140060109B27030011E6000019E600009B270300FB
S2140060209B2703009B2703009B2703009B27030057
S2140060301DE60000086904009B2703009B27030059
S2140060409B2703009B2703009B270300B9980000AB
S2140060509B2703009B2703009B2703009B27030027
S2140060609B2703009B2703009B2703009B27030017
S21400607089EB00009B2703009B2703009B27030058
S2140060809B2703009B2703009B2703009B270300F7
S2140060909B2703009B2703009B2703009B270300E7
S2140060A09B270300B5A1000095A100009B270300D5
S2140060B09B270300F92E02009B2703005D39020090
S2140060C0BB7F0300B77F030039310200D17F030096
S2140060D0BF7F03002D390200C37F03009D390200F5
S2140060E009400200051D0200093A02009B27030032
S2140060F09B2703009B2703009B2703009B27030087
S2140061009B2703009B2703009B2703009B27030076
S2140061109B2703009B2703009B2703009B27030066
S2140061209B2703009B2703009B2703009B27030056
S2140061309B2703009B2703009B2703009B27030046
S21400614082B030BF074BD3F8F030DB0704D500230E
S2140061500193019B052B01DD02B07047019B0133C3
S214006160F6E700BF00ED00E0F0B5114A114C124E04
S21400617000F00105E3695F0713D40DB9334213D16C
S21400618003EA00078F4207D10B4A1A40002A14BFC1
S2140061906FF001000020F0BD013AEBD16FF0020075
S2140061A0F9E74FF0FF30F6E76FF00100F3E700BFC6
S2140061B08096980000000350020001000B4B70B55B
S2140061C0D96911F480310DD101244FF48072084E44
S2140061D0084DF46020462C641A61FFF7C5FF34644E
S2140061E0EC6070BD6FF00100FBE700BF00000350DD
S2140061F000100350002003504FF4003238B50F4B08
S2140062000F4C9A6641F671330122E569E3630D4B44
S2140062100021DA60022360612120236105F48035C5
S214006220FFF7A2FF10B92120FFF79EFF0122064BC1
S214006230DA600DB10023E36338BD00BF0090005064
S21400624000000350001003500020035070B5134C9C
S2140062506061E3695B071ED40E4656F8043B8D1852
S214006260A361AE420BD10423002121202361FFF756
S2140062707BFF58B9BDE870402120FFF775BF0821A5
S2140062800846FFF771FF10B10423236170BD56F86E
S214006290043BA361E5E74FF0FF30F7E7000003504B
S2140062A02DE9F84315464FF40032184B89469A6696
S2140062B041F6713203F51C33DF69DA6301220646C4
S2140062C003F58053DFF84C8007F48037DA6055B961
S2140062D0284601220E4BDA601FB10022A3F50053B8
S2140062E0DA63BDE8F88306F5005404EA0804A41B44
S2140062F0AC4228BF2C46494622463046FFF7A6FF4A
S2140063000028E6D12644A1442D1BE0E7009000506B
S20C0063100020035000E0FFFF2F
S2140063182DE9F04F4FF0FD0BC9B09A460DF11B0959
S2140063289DF8503108AFCDF80C90CDF808B001971D
S214006338059303890446009383790E469046418860
S2140063488288407812F046FB054650B10090A38834
S214006358002062883A4912F081FE284649B0BDE816
S214006368F08F99F800002FF032F938B12846A38844
S2140063786288344912F072FE8D25EEE75A46394691
S21400638899F800002FF0CBF88346002851D0529B8E
S2140063981BB1BDF84C3198424BD8002399F80090B1
S2140063A80793A9F14102012A5FFA8BF123D83846F0
S2140063B80139254ADFF898C05FFA81FE734513DB7A
S2140063C8059B04210792C3B907AF18221F489FED03
S2140063D81A7B02FB060420460A460830394684ED36
S2140063E8027B17F08FFC11E010F8011F01335140B3
S2140063F80CFB01F2E2E7059B33B123464A463846D2
S214006408009610F069FAA8E70829DED9B8F1000F57
S21400641801D088F80090BAF1000F01D0AAF800B0B1
S214006428529B002B99D05A46184608A917F06AFCC2
S21400643893E7012591E700BF000000000000000078
S214006448D411040009120400C59D1C818010002088
S21400645893010001000000002DE9F04F93B0CDE94C
S2140064680A32DDE91C530E9353EC102BCDE90801D4
S214006478104619468DED060B1E9E16F0CDFE80B111
S214006488DDE906014FF0FF32C54B16F0EDFE40B9C8
S214006498DDE906014FF0FF326FF4801316F0C6FEF2
S2140064A870B1DDE908019DED060B0E9B1E96CDE941
S2140064B81C53DDE90A3213B0BDE8F04F00F088B986
S2140064C80022DDE90601002316F0B0FE002800F0E1
S2140064D83381DDE906A303F1004BCBF30A5016F42B
S2140064E88063A0F2FF3008BF06250F9316F0C2FBA4
S2140064F89BA3D3E9002316F027FC9BA3D3E900232C
S21400650816F06CFACBF31304894644F07F518046A4
S2140065180022A44B504641F4401116F05DFA94A3AD
S214006528D3E9002316F010FC02460B4640464946BF
S21400653816F054FA16F0A2FE044616F09BFB8EA33D
S214006548D3E900238046894616F0FEFB0022964BC8
S21400655816F044FA16F092FE89A3D3E900230746FC
S2140065684946404616F0F0FB80463846894616F0FF
S21400657881FB85A3D3E9002316F0E6FB02460B460B
S2140065884046494616F028FA02460B46CDE90C2343
S21400659816F0DAFBDDE90C238046894610461946D4
S2140065A816F01CFA0022CDE91001804B40464946F9
S2140065B816F0F4FC00227E4B16F010FA02460B4644
S2140065C84046494616F0EAFC00227A4B16F006FAD0
S2140065D802460B464046494616F0E0FCDDE90C2329
S2140065E88046894600204FF0804116F0F5F90246AD
S2140065F80B464046494616F0F1F902460B46DDE9D9
S214006608100116F0CBFC07F2FF3700226A4B16F093
S214006618E5F900223B0516F097FB52465B46804696
S214006628894616F021FE002840F08980CDE90C89BD
S21400663804F16303C62B8CBF0527042731051BD539
S21400664853A3D3E900235046594616F003FE002804
S2140066587FD051A3D3E900235046594616F0E6FDED
S214006668002876D00027A542C6BF2C1B04F1FF35AC
S21400667800253C4646F480660E9B9F422CBF4FF092
S2140066880008A3EB070816F0020903D0002F18BF6E
S2140066984FF000083CB1DDE90C235046594616F089
S2140066A87DFC82468B46DDE906010022002316F0B3
S2140066B8BDFD10B10BF100439B46DDE9080126F449
S2140066C80063CDE90183DDE90A324BEC10AB009597
S2140066D800F07EF802465FB3DDE9091316F0200FD6
S2140066E800F10105089E0CBF65204520B047DDE98E
S2140066F808010523002205930A23002CCDE902325F
S21400670807F1FF374FEAD473B8BF64422A460193AD
S21400671804970A9B009430F08AFE0246B9F1000FEF
S21400672806D00B9BC41A0B9B1A190E9BA34245D87E
S214006738104613B0BDE8F08FDDE906ABCDE60022C3
S214006748404649461A4B16F029FC013CCDE90C0197
S2140067586EE7002D90D00F9B002B8DD0013D8BE768
S214006768FB799F501344D33FB3C8608B288AC63F33
S21400677861436F63A787D23F71A379094F930A4095
S2140067881655B5BBB16B0240EF39FAFE422EE63F0E
S2140067982D431CEBE2361A3F0000000080842E4191
S2140067A8FFFFEF7F0000F83F0000E03F00002C40AE
S2140067B800002440000018400000F03F2020DDE9DB
S2140067C80913089DA8470134ADE700BF0000000084
S2140067D82DE9F04F5BEC10AB97B0CDE90501DDE98C
S2140067E82058CDE90723504652465B465946229F15
S2140067F816F012FD70B90323CDE902870193AA4B60
S2140068080093DDE90501DDE9072330F042FD17B006
S214006818BDE8F08F4FF0FF326FF4801350465946AC
S21400682816F004FD28B10423CDE9028701939F4B97
S214006838E6E74FF0FF32504659469D4B16F014FDDA
S21400684868B19C4A07F00403002B08BF03229A4B42
S2140068581CBF13460422CDE902870192D0E75046B2
S2140068688DA3D3E90023594616F0FEFC38B98CA34D
S214006878D3E900235046594616F0D8FC68B1DDE93E
S2140068880723DDE905014BEC10ABCDE92187209500
S21400689817B0BDE8F04FFFF7DFBD002200235046D3
S2140068A8594616F0C3FC002800F091805B46524615
S2140068B80020002116F090F8012382468B460993A3
S2140068C817F4806400F08580092D40F28580002446
S2140068D830210EABA5F109020134202C03F8011B68
S2140068E8A5EB040901D09442F6D15946504616F055
S2140068F8C5FC724B054603EBC90393ED007B8DED93
S2140069080A7B16F0B7F902460B465046594616F06B
S21400691863F8DDE90A2316F017FA02460B46CDE9B6
S2140069280C2316F0D3FC064616F094F902460B46DE
S214006938DDE90C0116F050F802460B46CDE90C23AB
S21400694800225F4B16F090FC002848D001363046EF
S21400695816F080F902460B46DDE90A0116F070FCCF
S21400696808B100260135B9F1000F45D1284616F0C2
S21400697881F902460B465046594616F02DF8002275
S2140069884F4B16F053FC10B9E90700D501350A211C
S2140069980EAB1A19202C0AD095FBF1F001FB105506
S2140069A8303502F8015B013405460028F2D107F0BD
S2140069B80302012A55D1B8F1000F52D0099A12B92C
S2140069C817F00C0F01D008F1FF38302240E009908C
S2140069D876E74FF0060988E7A946002485E70022EF
S2140069E8DDE90C01364B16F021FC0028BBD10EB1B0
S2140069F8F007B8D50136B6E70A210EAB1A19202CCF
S214006A080DD0B6FBF1F001FB1063092E03F130033D
S214006A1809F1FF3904F1010402F8013B11D83021CD
S214006A28A1440EAA202CB2D04C4504F101030AD189
S214006A3804F158020DEB02042E2204F8202C1C4602
S214006A48A5E70646DBE7A1541C46EBE71A550134D2
S214006A58444506D2202CF9D1CDE9028701940EAB25
S214006A68CEE6202CF8D0099B3BB12D2204F1580322
S214006A786B4403F8202C0134EEE77A0704D504F1BA
S214006A8858032B226B44F4E73B07E5D504F158037B
S214006A9820226B44EDE700BF0000000065CDCD4125
S214006AA80000000065CDCDC1F72E0400FB2E0400C3
S214006AB8FFFFEF7FEE2E0400F32E0400007804009C
S214006AC80000E03F0000000070B58EB02C220021C8
S214006AD803A816F087FF64234FF002320893CDE927
S214006AE805230B2301218DF834305B4B8DF81010ED
S214006AF81D880D4040F0A980084634F009FD0A229A
S214006B08564B574C1A704FF42873ADF812304FF0A6
S214006B18FF332360534B54491B8820460B82534B44
S214006B28534A1B68CD828B61524B0D621B884B8281
S214006B38514B1B68CB611DF02FF820B14FF41B7129
S214006B484E4835F012FD0521206831F0D8FA20B1FC
S214006B5840F27D21494835F008FD206815F0F8FE1A
S214006B68474B2068196830F044FE0C2535F038F994
S214006B786843099035F034F968430DEB0501079032
S214006B88206817F0CBFB20B140F295213B4835F042
S214006B98ECFC25681FF02AFC00220146284630F047
S214006BA8A0FE20B140F29721344835F0DEFC40F2D2
S214006BB80353344D344E2B80052396F90000AB70F2
S214006BC87F2801D11DF0D0FA3378EB7035F008F93C
S214006BD800EB80008000A88035F002F90023C00092
S214006BE84FF0FF31E880AB604FF0FF3018A3D3E9D1
S214006BF8002334F0DFFD2549206830F02BFE20689E
S214006C0802A931F023FB20B14FF434711B4835F04C
S214006C18ACFC042220680DEB020130F0BFFD04280E
S214006C2804D040F2D721154835F09FFC01A9012071
S214006C3830F080F907F028FD01201DF019FF2CF030
S214006C4896FB1DF03FFF1DF027FA0EB070BD00BF83
S214006C580A0020FF420300005E59002090600020D2
S214006C6884530020A091040084670020A8910400A3
S214006C7841B503009E910400A4910400C067040077
S214006C88C464002078530020586A0020B5B5030075
S214006C980348044B834202D0034B03B1184770479E
S214006CA8846A0020846A002000000000064B07491A
S214006CB8C91A891048BF0131491003D0044B0BB1DB
S214006CC801481847704700BF846A0020846A00207D
S214006CD80000000010B5064C237843B9FFF7D8FF2C
S214006CE8044B13B10448AFF300800123237010BD92
S214006CF8B815002000000000C0CC040008B5044BFE
S214006D081BB104490448AFF30080BDE80840CDE74E
S214006D1800000000BC150020C0CC0400A3F5803A93
S214006D28704700BF154B002B08BF114B9D46FFF759
S214006D38F5FF00218B460F461148124A121A16F024
S214006D4851FE0C4B002B00D098470B4B002B00D065
S214006D5898470020002104000D000B4817F088F91A
S214006D6816F018FE200029002BF046FA17F06EF9E8
S214006D7800000800000000000000000008100020C6
S214006D8808100020E4600020E1E0010007B50121BA
S214006D9820200DF1070201F033F858B10223012133
S214006DA820200DF107028DF8073001F039F803B0FE
S214006DB85DF804FB9DF807100229F8D0022209485E
S214006DC815F0F2FC022301210DF1070220208DF8B0
S214006DD8073001F025F82BF069F94FF4FA6000F057
S214006DE857FEE4E7B0C9030038B501F0E5FF01F047
S214006DF8A5F9012805D001F0A1F9022801D001F073
S214006E08C3F9064D2B783BB901F098F901280446DA
S214006E1802D12BF0D4F92C7038BD00BF3C5A0020A4
S214006E2810B5044600882BF015F9A37884F84400BA
S214006E38834202BF0123E3702371074B04F11C0051
S214006E48C4E9073401F032F8224620880349BDE831
S214006E58104000F06FBF00BFF31D0300BD1D030008
S214006E6870B5C37804460D461646002B34D1D1B10A
S214006E78214815F099FC0123E370E36CA6600BB17A
S214006E88E06D9847E368F61A63699E4221D2217E30
S214006E981A480131C9B2217615F086FCA36D13B1E4
S214006EA8217EE06D9847E5702BF013F915B323792A
S214006EB803BBA268238A801A83421BD80123104882
S214006EC8237115F071FC236DA3B1E06DBDE8704029
S214006ED8184701232376E6E70029E4D1094815F088
S214006EE863FC636DE660E5702571002BDBD0E06D12
S214006EF89847D8E770BD00BFD8C90300E9C90300A2
S214006F0817CA030004CA030070B51E4683880446E1
S214006F180D46C18002810BB1868070BD81780088DD
S214006F282AF084FF0123E370064BA680C4E90334E5
S214006F380C34204600F0BAFF29462046BDE87040CB
S214006F482BF0BEB83F1E030010B501790446B1FA0F
S214006F5881F1008849092AF0E0FF21796088B1FAB2
S214006F6881F149092AF0D9FF034B1A68A24204BFE7
S214006F7800221A6010BD00BFD415002070B54379F2
S214006F880446A3B100880E4E04F10805336813B111
S214006F980C4B1B786BB121792AF0BFFF64210A4B92
S214006FA83460A3602846BDE870402BF089B8408856
S214006FB8E9E7064815F0F8FB054B3221A360F1E730
S214006FC8D41500203D5A0020516F00002DCA03003A
S214006FD8856F000010B50446E0B10F4815F0E4FBD5
S214006FE801236371A37953B9217920882AF095FF84
S214006FF8236B7BB1606B0121BDE810401847204623
S214007008FFF7A2FF04F108002BF05FF82046FFF711
S214007018B5FFEDE710BD00BF63CA030010B5044610
S214007028F8B1104815F0C0FB00236371A3796BB95B
S21400703821792088B1FA81F149092AF06EFF236B7D
S2140070487BB1606B0021BDE8104018472046FFF76B
S2140070587BFF04F108002BF038F82046FFF78EFF78
S214007068EDE710BD6ECA030010B5044668B10748C0
S21400707815F09AFB637920461BB1BDE81040FFF770
S214007088CDBFBDE81040FFF7A5BF10BD7ACA030004
S21400709810B50E4C0E48214615F086FB82210D4889
S2140070A815F082FB82210220A21E00F0B9FE0146DE
S2140070B830B134F8022C0848BDE8104015F074BB0F
S2140070C80648BDE8104015F06FBB00BFCA54002044
S2140070D889CA0300A4CA0300AFCA0300F3CA0300A0
S2140070E838B50E4C82212246022000F089FEA51CE7
S2140070F8014650B122880A4815F056FB4922284610
S214007108084916F0FFFD4823238035F8021C064A76
S2140071180648BDE8384015F047BB00BFC8540020F5
S214007128FECA03007ECB0300CA5400205CCB0300D3
S214007138034B1B781BB18B4201D82AF0B7BF7047A8
S214007148006A002010B5044601460E4815F02CFBD0
S214007158012C11D10C4B0D481A884FF6FF739A4232
S2140071681EBF0022094B5A742AF0BDFE01F07AFFB2
S214007178BDE8104001F04CBE0448BDE810402AF0B7
S214007188B4BE00BFC7CB0300B4690020506400201B
S21400719870B500241A4D1B4E3378A3421BDC00241E
S2140071A8194D1A4E3378A3421BDC0024184D194E8D
S2140071B83378A3421BDC00F0C1FF012816481CD117
S2140071C82AF091FE01F04EFF01F022FEBDE8704065
S2140071D8124800F0D3BF2846FFF722FE0134603578
S2140071E8DAE728462AF065FE01343435DAE7284619
S2140071F82AF098FE01343835DAE72AF076FEE5E715
S21400720880210020435A0020A0250020445A002050
S214007218501F0020425A0020506400204D71000084
S2140072282DE9F04F87B0FFF75BFFB94B05A805932C
S2140072382AF09CFE054616F0D1FAB64CC2B21F2AB2
S214007248627004D9B44815F0AFFA00F015FC294668
S214007258A01C16F057FD05A82AF088FE054616F06D
S214007268BDFAC2B21F2A84F8212001D9AB48EAE742
S214007278294604F1220016F045FD05A82AF076FEF8
S2140072883226044600272578002D40F09F80A44C1F
S214007298FFF77EFF2378DFF8C8A2DFF8C882A14F81
S2140072A800939AF8003098F8002039789E4815F030
S2140072B87BFA3A7898F800109AF8000053180344B6
S2140072C8DFF894B220782C4603445846DBB2AA422C
S2140072D800F3E482012B38BF0123944E0293324612
S2140072E8002335464FF482714FF6FF740298013337
S2140072F8984213705180948002F10C02F6DC8C4B95
S2140073088A498448AB6000F0F5FFE879AB68DFF897
S214007318449200EB400003EB800000F0BBFDEB79E5
S214007328B9F800200133A242EB7103D07F498148A7
S21400733801F0E4F84FF6FF73B9F800207B49D21A3B
S21400734818BF01227C4801F0A3FC4FF00009784CD6
S2140073583A784A4500F3CA8200264FF00C09774A65
S214007368DFF8C8B198F800003978B04200F3D28246
S21400737846180C21002501FB06B19AF80000942354
S214007388A8426F4A00F3E4820C253E7898F800304D
S21400739800274FF070081E44064405FB06B5DFF8C4
S2140073A8C8A15F4B1B78BB4200F3E58202995F4891
S2140073B800F0FEFD059B56491A468B4240F0EE82C9
S2140073C8604807B0BDE8F04F15F0EEB9532D0FD161
S2140073D863784C2B40F04881A378502B40F04481CA
S2140073E80122594B1A7005A82AF0C0FD04464AE740
S2140073F8442D13D16378303B092BF4D8601C2AF04F
S214007408C2FD524B524A1978002386B2994202F1BD
S2140074186002E8DD22F8466C0133F7E7422D0BD10F
S2140074286378542B54D1A01C00F0D2FC494B18802A
S21400743818462AF09CFCD6E7582D33D8412DD2D9C9
S214007448433D152DCFD801A353F825F01378000037
S214007458EF730000EF730000EF730000EF73000097
S214007468EF730000C3750000EF730000EF730000B1
S21400747875750000BF740000EF730000EF7300001E
S214007488EF730000EF730000F576000071760000D9
S214007498EF730000EF730000EF730000EF73000057
S2140074A86B770000692D9ED1601C2AF06CFD80B2B7
S2140074B82AF0F8FD97E71B4B012019780023264A87
S2140074C8994202F1A8028EDD02F8A60C0133F7E70E
S2140074D8601C00F07DFC0546E01C2AF0CCFD01216E
S2140074E8024628462AF083FD60211848184C03787F
S2140074F85943621865524FF4FA6111824FF4487185
S2140075085161164956831165013303706BE700BF56
S214007518CA54002064630020E6CB0300FDCB0300BA
S2140075283E5A0020415A00200DCC0300A016002029
S2140075381817002050160020D8150020A41B00207D
S214007548E81900205DCC03003D5A0020435A00206D
S21400755880210020B4690020A41C00205F1F0300BF
S2140075683F5A0020405A002098180020601C00F05F
S2140075782FFC00224FF034088146CC4F11462AF0E3
S21400758836FD3878CA4D08FB00F325F80390EA184C
S214007598E3781046693B18BF012393702AF089FCEC
S2140075A80021C44A3B785160012103FB08550B446F
S2140075B83B7015600F46117415E7601C00F008FC58
S2140075C80022114681462AF012FD3422B74DDFF814
S2140075D8E082287802FB00F328F8039008EB030102
S2140075E8E3780846693B18BF01238B702AF061FCD4
S2140075F8B14A00231046916B31BB00EB831034234D
S2140076082A7802FB03838363AC4A00231046D2F829
S214007618A410F9B9A82202FB030034232A7802FB37
S2140076280383C0F8A4305FB9A24A3B46114652F815
S214007638040BA8B93422287800FB028241F82320DC
S2140076482B7801332B70CEE60133042B02F140026F
S214007658D1D1D9E70133042B02F1A802D7D1E2E74A
S2140076680133042BE3D1EBE7601C00F0B1FB804646
S214007678E01C2AF000FD0121024640462AF0B7FC2D
S21400768860218F488F4D0278DFF854C251436B183B
S21400769825F801804FF44871198259618A495E833A
S2140076A89965E178A824642904BF012199709CF89B
S2140076B80030DFF808E25C430EEB04010EF80430F5
S2140076C84FF400744C8003240C718C7102EB420456
S2140076D805EB441532240133DBB201324B718D6061
S2140076E881F8A04002708CF800307CE6601C00F040
S2140076F86FFB00224FF0380A8146DFF8DC8111461E
S2140077082AF075FC98F80030704D0AFB03F325F84C
S21400771803904FF00109EA1882F80490E37873B1F1
S214007728E01C00F055FB0022044611462AF05FFCD8
S21400773898F800300AFB03535C8083F80690644888
S2140077485D4A03789901535498F8001002EB8314A5
S214007758C1EBC10205EBC2054A1C656388F8002028
S214007768D2E6601C00F034FB8046E01C00F030FBDC
S2140077780546601D2AF07FFC044602460121404665
S2140077882AF035FC2246284601212AF030FC6020E3
S2140077984FF4487CDFF828E14A4A9EF8003000FBA0
S2140077A803F422F80480DFF820811119A1F810C02C
S2140077B8C1F814C04E83C1F85880591CC9B2484352
S2140077C81418A4F810C0C4F814C06683C4F8588007
S2140077D8942415523F4D981C8EF800002878DFF840
S2140077E804C1444303EB430301EB41010CEB040ED5
S2140077F802EB431302EB41120CF80400CEF80430F7
S214007808CEF8082001302870EDE5601C00F0E0FA9C
S2140078188046E01C00F0DCFA002205461146404689
S2140078282AF0E5FB00223824114628462AF0DFFB1A
S2140078382948264A03784FF0000E04FB03FC22F87A
S2140078480C804FF0010802EB0C0181F806E081F885
S214007858048003EB0801C9B24C4302EB040C155331
S2140078689C1C047070241D4D8CF806E028788CF853
S21400787804804443DFF870C0C3EBC303C1EBC10107
S2140078880CEB040E02EBC30302EBC1020CF8040077
S214007898CEF80430CEF808204044B4E746790135DF
S2140078A88E4284BF04714471A83010E5445A002003
S2140078B8A025002050640020A41B0020A41C002043
S2140078C8435A00208021002039710000501F0020F4
S2140078D8405A00203F5A0020425A00203E5A0020B4
S2140078E8415A0020E819002098180020B9F1000F26
S2140078F806D016F8052C02EB420204EB8204B460AC
S2140079083146584601F082FD09F101090BF1A80B32
S2140079180C361DE571180AD0481E09FB00B0C07960
S21400792800EB400004EB800409FB01B084601046BD
S21400793809FB0151039201F027FB39781C483144B2
S21400794809FB015101F08EF8039A0136403209E529
S214007958F54218BF11F8050C03911EBF00EB400056
S21400796804EB80048C6003FB052000F08BFF039972
S21400797801350C3101E5F74218BF15F8053C2946D4
S2140079881CBF03EB430304EB830408FB07A018BFE4
S214007998AC6000F04DFE01370C3502E513F8011D0A
S2140079A800297FF408AD3B2102F8011C03E500BF5F
S2140079B8441F002007B5012121200DF1070200F021
S2140079C81FFA18B99DF80720024B1A7003B05DF825
S2140079D804FB00BF006A002007B5064B8DF80700B9
S2140079E8187001210DF10702212000F019FA03B0E2
S2140079F85DF804FB006A002007B5022101200DF19E
S214007A08060200F0FDF938B9044814F0CDFEBDF8BA
S214007A18060003B05DF804FB0020FAE77ACC030002
S214007A2807B50221ADF806000DF10602012000F0A8
S214007A38F7F9014610B1034814F0B6FE03B05DF836
S214007A4804FB00BF9BCC030010B5FFF7D5FF044628
S214007A580146074814F0A8FE0121064814F0A4FEC3
S214007A6824B9BDE810400120FFF7DABF10BD00BFFB
S214007A78CBCC0300DDCC030008B5044814F094FE14
S214007A8800F0DEF92AF012FB2AF00DFBF3CC030017
S214007A9838B50446084D094B28462B6000F006FA10
S214007AA8002C18BF21462846BDE8384008BF4FF4CA
S214007AB896712AF005BB00BFA4260020AD1F030060
S214007AC82DE9F043394D93B008AC074689469046F1
S214007AD80FCD0FC40FCD00260FC495E8030003236F
S214007AE8012584E80300324C3248CDE90366CDE927
S214007AF805668DF80E300796029534F0D0FC2E48B1
S214007B0834F0CDFC32462D4920468DF8176005F036
S214007B181DF8334632462A498DF81900009020464B
S214007B288DF82390CDF82C808DF8216005F028F884
S214007B380A9020468DF8097004F088FF204608AAA7
S214007B4805A905F043F802AA204603A92BF08DFBE9
S214007B584FF400721B4B5A62194BE560626A920535
S214007B6810D46BB94FF40072164B11485A6204F0E1
S214007B786DFF114834F096FC002013B0BDE8F08382
S214007B88013BEBE7002BEDD0094908A82BF0A0FB3A
S214007B984FF400720B4B06485A6204F057FF06482B
S214007BA834F080FCBDF82000E7E700BFB8680400A2
S214007BB80040005A086B0400046B040080841E0012
S214007BC840420F000060005A0122034B1870034B16
S214007BD81980034B1A707047465A0020BC6900206B
S214007BE8455A0020F8B5454B1B780BB90020F8BD60
S214007BF8434B1B78012B03D1BDE8F8402AF0D5B9D2
S214007C08404B1C884FF6FF739C42EFD03E4834F03A
S214007C1846FC0023260AE4B21A462146304604F0FB
S214007C28D5FE012E354604F0010335D015D9B51E0C
S214007C38012DDBD8002B0BBF4FF480754FF08075F5
S214007C484FF470614FF070610BBF01274FF4803717
S214007C580F204FF470202D4B11E0002B0BBF4FF474
S214007C6880754FF080754FF470614FF070610BBFF0
S214007C7801274FF480370F204FF47020244B1A68E2
S214007C8802401CD0BA421AD01A680A4032D11A6882
S214007C9822EA01022A4316E0002B0BBF4FF4807538
S214007CA84FF080754FF470614FF070610BBF01277D
S214007CB84FF480370F204FF47020164BDFE71A6812
S214007CC822EA00023A431A602AF06FF905460028AD
S214007CD88CD0083644EA06102A460321C0B2FFF7BD
S214007CE8EFFE40F6FF73684300F2FF70B0FBF3F058
S214007CF880B27CE795427FF479AFC8E7455A002002
S214007D08465A0020BC690020086B040028C30350AC
S214007D1820C3035024C3035010B5044C237823B95A
S214007D28034834F0BCFB0123237010BD485A0020DA
S214007D38086B04002DE9F0431F4C85B007468846BB
S214007D489146FFF7E9FF23781BB902F0E5F801230F
S214007D5823707BBAADF80C3030220023174E02FB96
S214007D6803F4315DA51901BB012333554FF0FF33EA
S214007D7804F1100012493044AB606F80C5F80480E7
S214007D88C5F80C9009F0C0FB04F108010422314440
S214007D980C4B009503A802F095F9A96802460A4814
S214007DA814F002FD05B0BDE8F0830133102BD6D1E0
S214007DB8064814F0F9FCF5E7475A0020CC260020C0
S214007DC8D71F0300E91F030000CD03002ECD0300D4
S214007DD880B10278A2F14103032B0BD840783038E3
S214007DE8C0B2082806D8054B134413F8413C40EAAD
S214007DF8032070474FF6FF70704700BFE068040026
S214007E0808B50B4642B101460448006803F0A2FADA
S214007E18BDE808402AF040B9022008BDBC6400202E
S214007E2808B50B4642B101460448006803F01AFC40
S214007E38BDE808402AF030B9022008BDBC6400201E
S214007E48F0B50026124F8DB0FF2300930A22334662
S214007E58386802A92AF0AEFFC0B102AB1D4603EB94
S214007E68800404E055F8043BB34228BF5E1CAC42CD
S214007E783868E9D9296803F07BFD0028F2D02D2858
S214007E88F0D00DB0BDE8F0402AF006B90DB0F0BD50
S214007E98BC64002028B1034B0360034B43600023F7
S214007EA8836070471900000364640020FF2307B549
S214007EB80021044A0093083009F0AAFA03B05DF8D6
S214007EC804FB00BFC32003000B46044902460868AB
S214007ED80349097808B12AF017B97047D82900204D
S214007EE84A5A0020F7B50C4618B12921194834F02B
S214007EF83CFB246823685E795F8830463946FFF77E
S214007F08E3FFF0B18568E5B1A089227D3946904245
S214007F1891BF0020801AA36880B294BF03469B18BE
S214007F28E27C00903046A8470138032803D8DFE8EB
S214007F3800F0080F0B0D002420462EF0B0F820465F
S214007F4800E0812003B0F0BD8024F5E79324F3E732
S214007F588724F1E756CD0300F8B515460D4A0446C2
S214007F6810680D4A0B46117850B122462AF0CCF814
S214007F78034628B100210C27C678B14201DB002051
S214007F88F8BD07FB01F45A681019125BAA42F7D02D
S214007F980131F2E7D82900204A5A002008B5034BD9
S214007FA81B6803B19847002008BD00BFD4290020ED
S214007FB82DE9F74F04460D460026454B454F1860F9
S214007FC8454B197033010021F85C013610F0F0FAC1
S214007FD80C2EF7D10C2D28BF0C254FF00009019563
S214007FE83C4EDFF800A13D4DDFF8FC80019B4B4579
S214007FF802DC03B0BDE8F08F23784FF0000B337037
S21400800863887380A388B380A379C6F80880B371A1
S214008018E379C8F8005088F804304FF00003A768E2
S214008028A8F80630E3795B450ADC012116F8100B40
S21400803810F0BEFA08F1080809F101090C34D5E772
S2140080484FF0000338886B812880FB784FF0000CCF
S2140080582B81BA78C5F804A0002A00920CBF8022AB
S21400806840222A7379680AF10C02634513DC03EB95
S21400807843030AEB830ABB6843B1009A4FF6FF71C5
S214008088B2FA82F2164B52092DF099FF14350BF10D
S214008098010B0C37C6E7B1F800E00CF1010C22F82A
S2140080A80CEC91F802E00C3202F816EC91F804E0B9
S2140080B80C3102F815EC11F809ECBEF1010F14BFEB
S2140080C84FF0100E4FF0110E02F814ECCDE700BF7B
S2140080D8D8290020304100204A5A0020DC2F0020F2
S2140080E8ED7E0000DC2900205C320020014B186081
S2140080F8704700BFD0290020014B1860704700BFAA
S214008108D429002070B5128805460E46FFF724FFCE
S214008118044670B102790499806815F0B5FC064BE0
S2140081281B680BB9002070BD314628462288984740
S214008138F8E78620F7E700BFD029002008B50FF03B
S214008148D3FA022806D0012806D0044B1878400037
S214008158C0B208BD0120FCE70220FAE7495A002011
S214008168054B10B51C682CB1FFF7E8FF2346BDE8A1
S2140081781040184710BD00BFCC290020014B1860DE
S214008188704700BFCC290020034B1A781AB9012281
S2140081981A700BF009BB7047495A00200022024BA0
S2140081A81A70FFF7DDBF00BF495A002037B50446EE
S2140081B8002836D00FF098FA022834D160892EF0BD
S2140081C8D0FAE079237A003818BF0120012B637AA9
S2140081D808BF40F008000BB140F0100063890BB1EF
S2140081E840F00400257CA188A2790DB1E36893B914
S2140081F80F4B10F0B9FD2178084610F031FE2DF02F
S214008208D9FD044610F0EAFD7CB100280CBF00201A
S214008218032003B030BDCDE90035064B10F0A4FDB1
S214008228E9E70220F5E70120F3E72046F1E700BF7B
S214008238211E0400EAED030008B50DF013FC014604
S21400824830B1044814F0B0FABDE808400DF0AEBFEF
S21400825808BD00BFC8CD0300034B044A5B7C012160
S21400826803201370FFF7DCBD506400204B5A002033
S21400827810B50446FFF7F0FFB4F57F4F0BD1002486
S2140082880F4B1A8813449C70FEF702FF2046BDE881
S2140082981040FFF7FDBB4FF601739C4204D1BDE8C2
S2140082A81040084829F007BE4FF602739C4205D1D5
S2140082B8BDE81040044B1878FFF78EBB10BD00BF12
S2140082C8C854002050640020006A002010B5074CEF
S2140082D8012122460320FFF793FD28B92378044A94
S2140082E8003B18BF0123537410BD00BF4B5A002033
S2140082F850640020F8B5574B30251A884FF6FF73A0
S2140083089A4218BF03234FF00802534C4FF0360624
S21400831818BF2370514B9D705D7139251A70322233
S2140083289D7131255A70DA701A724FF40012DD7199
S2140083384B4D4264C5644B4D012205654A4D1E717E
S21400834885654A4D8618C565494DC6674566494DD3
S214008358494E8566494D80F848200567484D80F89F
S21400836854204567202580F8785080F8845000F11E
S2140083782105C0F88850434D80F86020C0F88C501E
S21400838880F86C20C0F8806080F89020C0F8944090
S214008398C0F8B8303C4B3D4CC0F8BC300223C0F89F
S2140083A898403B4C80F8C030C0F8A4400F24394BA6
S2140083B880F8A840C0F8C430374B384CC0F8C830EE
S2140083C88223C0F8AC40364C80F8CC30C0F8B040B9
S2140083D80924344B344DC0F8D030344B80F8B440C0
S2140083E8C0F8D4302C7C324B80F89C20C0F8A00013
S2140083F880F8D820C0F8DC3044B12E4B80F8E42052
S214008408C0F8E03005F11103C0F8E8304FF0000C72
S214008418CA798E6802EB42039F00443006EB83035A
S21400842826F807C0586001200D349870DC701318C1
S214008438CB71FFF7BFFAFFF749FFFFF77FFE01286A
S21400844806D12B7C23B1BDE8F840174829F033BD88
S214008458F8BD00BFB4690020016A00204C5A00200D
S214008468F968040001002000F868040002002000F3
S214008478F76804000300200005004200F6680400C0
S2140084880400420007003000FDFF21001200100122
S21400849800404200F468040000FF4401E468040059
S2140084A806004200C85400205064002002FF200145
S2140084B8006A002001FF100113B504460D4829F094
S2140084C861FC6422C0F30F43637083B2B3FBF2F31C
S2140084D8A07823702022012129F038FEA0782122D6
S2140084E8012129F033FE0449201D02B0BDE81040E2
S2140084F829F0E6BDB4690020E09304000B7870B557
S21400850883704CF61E0303804FF02013C3620123CA
S21400851880F8303080F83C30C3180364124B0446A9
S21400852843640223114A80F84830114B8263C364BF
S2140085384063CA798D6802EB420305EB830004F1B9
S2140085482C0646600B4E45F8236000238360531CB8
S214008558CB71094B201DC4E90134FFF7A7FC204660
S214008568BDE87040FFF7A8BFFDFF210021002000EE
S214008578FA68040001000103C1840000437B044A32
S2140085880121137000781130C0B2FFF749BC00BF54
S214008598565A002038B504460078054D11302A464C
S2140085A80121C0B2FFF72CFC08B92B78637338BDDD
S2140085B8565A0020024B53F8200029F0A2BE00BFEE
S2140085C8BC320020012908B506D0022907D049B9CF
S2140085D829F08EFE002008BD29F08DFEFAE729F066
S2140085E88DFEF7E7024814F0DFF80120F3E700BF36
S2140085F8F5CD030010B4054C114654F820001A4671
S214008608BDF804305DF8044BFFF7DCBFBC32002031
S214008618002310B5044683810364A0F8443048302C
S214008628FFF744FC014BC4E9123410BDF1220300E5
S21400863838B504460B781A4A43700D4642F82300AC
S214008648FFF7E6FF2046FFF7A5FF4FF44013236128
S2140086580123144A2375A261134A84F82030E26184
S214008668124A84F82C306262114A84F83830A262C2
S21400867804F10C0222630F4A04F10D036263E363FC
S214008688EA79A86802EB420300EB830110344C60D9
S214008698094C40F82340094B8B60531CEB7138BDDE
S2140086A8BC320020555A002008002000026A00202C
S2140086B800FF300001FF100102010104FD850000E3
S2140086C810B47024427B0D48013A012904FB0200CD
S2140086D806D0022908D059B95DF8044B29F008BE1F
S2140086E85DF8044B29F007BE5DF8044B29F006BE7A
S2140086F803485DF8044B14F057B800BF98180020DC
S21400870811CE0300B0F85C302DE9F0418B420446E8
S2140087180E4638D0437B077C8BB31C4A12789A42A5
S2140087282DD370251A4A013B05FB032390F80F80CA
S2140087381B7B424629F0F3FDB845054601D1FF28C4
S2140087481FD13A463146204694F8903029F0E7FD86
S2140087582F460546552212216078A4F85C6029F059
S214008768F5FCFF2F03D039462046FFF7A9FFFF2D5B
S21400877809D029462046BDE8F04129F010BEFF255D
S214008788DFE70746E6E7BDE8F08100BF3E5A00206F
S2140087989818002041688268C978D27849B112B121
S2140087A80321FFF7AFBF837B002B0CBF01210221FB
S2140087B8F7E72AB1837B002B0CBF02210121F0E7E3
S2140087C8014813F0F1BF00BF22CE0300037BD3B1EC
S2140087D84368DA7812B18268D278A2B91B7933B1C5
S2140087E8837B002B0CBF04210521FFF78BBF836812
S2140087F81B792BB1837B002B0CBF05210421F4E7E2
S214008808014813F0D1BF704754CE0300084A437B93
S21400881805211370837B5370C37B9370037CD370DE
S214008828037B137100780E30C0B2FFF7F9BA00BFA9
S214008838575A002038B5044600780C4D0E302A46A4
S2140088480521C0B2FFF7DCFA20B1BDE83840084879
S21400885813F0AABF2B7863736B78A373AB78E373B4
S214008868EB7823742B79237338BD00BF575A002042
S21400887890CE0300024B53F8200029F0DABD00BF63
S214008888E4320020F8B504460B78424A43700D4699
S21400889842F82300404E29F0EAFDFFF7CBFF626856
S2140088A8A3683E483E49D6641165D4655065C3E959
S2140088B81410DE64DC654FF09873022663610123AA
S2140088C804F10C01E16137491032216204F10D010F
S2140088D8A16235492376E16204F10E0161633349EA
S2140088E884F82430A16304F10F012164304984F828
S2140088F83030616404F11001E1642E4984F83C309C
S21400890884F84830216584F85460A265E879A96837
S21400891800EB400201EB820704F1140CC7F804C010
S2140089284FF4817C244F41F82270C218D2B202EB71
S214008938420241F822C001EB820700227A601F4AF1
S21400894884F8703022661E4A84F88830A2661D4A6B
S2140089581D4BE2661D4AC4F88C3062671C4A8319B0
S214008968A26704F15C02C4F88020DBB2194A03EB64
S2140089784303C4F8842084F8646084F87C6001EBC0
S214008988830260345460144A033041F82320E871A7
S214008998F8BD00BFE43200209D870000FD230300D9
S2140089A8D5870000010020010200100103003001F5
S2140089B8040030010500210101FC01064A002100DF
S2140089C8FC68040051001000FE680400FF680400FC
S2140089D8550021006F0018001200010470B50D46FE
S2140089E80646144613460A4601461A4813F0DCFEA5
S2140089F825B92046BDE87040FFF73ABC072D05D1DB
S214008A0821463046BDE8704000F0C4BC4FF601432E
S214008A189D4205D121463046BDE87040FFF72ABF83
S214008A28062D05D121463046BDE8704000F066BAEE
S214008A38B5F5817F05D121463046BDE87040FFF781
S214008A48B9BD202D04D12046BDE8704000F0ECB832
S214008A5870BD00BFBFCE03000148FFF747BB00BF8D
S214008A68E58900004FF4C01330B503600123037195
S214008A78074B8C688360CA7902EB420304EB8305D4
S214008A886860044844F82300531CCB7130BD00BF0F
S214008A9800690400040001010368064A0C211360FB
S214008AA84368536003891381438922205381FFF763
S214008AB8B7B900BF0C33002010B50368044686B06B
S214008AC8FBB1114813F070FEA37B104A8DF80430F2
S214008AD84FF48273ADF806300123CDE90223002354
S214008AE801A804938DF81430FFF760FB20466189CF
S214008AF829F0CDFC2046FA2150F8143B594329F0BA
S214008B08DFFA06B010BD00BFF2CE03002000000159
S214008B1810B5064C236843B1054813F045FE206897
S214008B28BDE81040418929F0B2BC10BD18330020BA
S214008B3813CF030070B5364910460C68BDF81020F0
S214008B48002C5ED003285CD8DFE800F0021E27451C
S214008B58002B5AD0022A58D91D78B3F80160291E6E
S214008B6818BF012132462B4813F01EFE2DB13146A0
S214008B78204629F08CFC002070BDE573FA20636857
S214008B88584329F024FBF6E7234813F00DFEE37B51
S214008B98002B38D00023E373F0E7002B35D0032AE8
S214008BA833D91D681D48294613F0FEFD1C4B2A1FA5
S214008BB89A4201D90220DFE723680BB19D42F9D813
S214008BC823899D42F6D3E37B6560B3B9FA206843F0
S214008BD829F0FDFA11E0002BCED0012ACCD91D8849
S214008BE81048294613F0E0FD002DE3D063689D4247
S214008BF8E0D8E37B2581002BE8D12046FFF74CFF21
S214008C08B9E70120B8E70420B6E70320B4E700BFB9
S214008C181833002036CF03006DCF03008CCF030037
S214008C28FCFF6D00B7CF030038B5154B1C6834B38E
S214008C38F0B92168134813F0B7FD23683BB16268A2
S214008C48934204D2104813F0AFFD6368236004F122
S214008C581405284629F039FA236823B1FA2128464C
S214008C68594329F02DFA2046BDE83840FFF714BFCF
S214008C78032804D16189054813F096FDF3E738BD4B
S214008C8818330020E2CF030010D0030045D00300BD
S214008C9870B53E4B0D46044609781860002A6FD119
S214008CA801231A46A1730021E1730121A1814FF423
S214008CB86151C4E900132823354E22810C2132461F
S214008CC822206381FFF79CF860B9D6E900230AB131
S214008CD89A4207D3318999429FBFC4E90023738912
S214008CE8218163812B4B2C4AE363042384F84030AC
S214008CF884F84C30E3182365284BA2646365022386
S214008D0804F10802E265264A84F85830226604F11F
S214008D180A02A266234A84F8643084F8703004F1A4
S214008D280C03E26663676464EA79A86802EB4203A8
S214008D3800EB830104F13C064E601B4E40F82360AE
S214008D48FA261A4B1A488B60531CEB71FFF7D4F9B6
S214008D58208904F11405704329F039FA6189204600
S214008D6829F095FB134B2846C4E90534FFF79EF80F
S214008D78216849B128467143BDE8704029F0A0B97A
S214008D884FF4F07302228DE770BD00BF1833002041
S214008D980C330020000023010100230002002100FC
S214008DA803002101FDFF2100200001053D8B000086
S214008DB8198B0000C18A0000134B10B51C680CB351
S214008DC8E37BEBB129F085F92369C01A002809DB93
S214008DD80E4813F0E9FC0023FA20E373636858434F
S214008DE829F0F5F9E37B5BB12489FA235C4329F083
S214008DF8F9F9A04206D02046BDE8104029F0E7B9A8
S214008E086468F2E710BD00BF1833002072D0030074
S214008E1838B50024044D55F8040B08B129F04AFB70
S214008E2801340A2CF7D138BD1C330020042908B5B4
S214008E380AD172B16BB113781BB929F066FB002012
S214008E4808BD29F058FBFAE7034813F0ADFC0120EB
S214008E58F6E70320F4E700BFACD0030010B4054CD7
S214008E68114654F820001A46BDF804305DF8044B45
S214008E78FFF7DCBF1C3300200229024608B50ED0D7
S214008E8804D839B9104629F040FB06E04029F9D045
S214008E98412907D1104629F02EFB002008BD29F0ED
S214008EA83EFBFAE7024813F07FFC0120F6E700BF16
S214008EB8CCD0030010B4054C114654F820001A46CE
S214008EC8BDF804305DF8044BFFF7D6BF1C3300200E
S214008ED8426B094B52791A7082785A70C2789A7027
S214008EE8826B12B190F83C20DA70007804210930C1
S214008EF8014AC0B2FEF794BF5C5A0020024B53F8F2
S214008F08200029F028BB00BF1C33002038B50446D3
S214008F180078084D09302A460421C0B2FEF770FFD3
S214008F2830B96B78A370AB78E370EB7884F83C3094
S214008F3838BD00BF5C5A002038B504460078114D8D
S214008F4809302A460421C0B2FEF75AFFC8B9A378EA
S214008F582A78022B0CD004D863B9204629F0D5FA13
S214008F6801E0FF2B0AD02046BDE8384029F0A2BA17
S214008F78002AF2D1204629F0BEFAF4E7002AF9D1F1
S214008F88EBE738BD5C5A0020F8B504460B78284A4B
S214008F980D4642F823004370FFF7B8FF636B254A77
S214008FA85C631A632046FFF7C7FF204629F082FA5B
S214008FB84FF4801363600123626BA66B0532E26090
S214008FC81D4A23722261A21C2375A26166B11B4A40
S214008FD884F82030E261E21C6262194A84F82C3078
S214008FE804F13C03A26223630627EA79A96802EB28
S214008FF84203002E21F8237001EB83000CBF0223E6
S2140090080423C370012383700E4B04348360531CFF
S2140090184460DBB20C4C03EB430341F8234001EBFE
S214009028830000234360094B02328360EA71F8BD6F
S2140090381C3300203B2503000340300101FF3001AC
S21400904802FF1001BD8E000008000100658E0000BA
S21400905828B1034B1B78834234BF00200120704799
S214009068405A002070B500250A4C0B4E3378AB42A8
S21400907800DC70BDD4F8A42042B123791BB1607916
S214009088FFF7E6FF10B9104628F006FF0135A834AA
S214009098ECE700BFA41C0020415A002008B542791E
S2140090A801461046FFF7D4FFA8B1CB780A48013A24
S2140090B8042B00EB82100ED8012B08D81BB9BDE88C
S2140090C8084029F018BABDE8084029F01EBABDE8DD
S2140090D8084029F024BA08BDA41B002008B5427928
S2140090E801461046FFF7B4FFA8B1CB780A48013A04
S2140090F8042B00EB82100ED8012B08D81BB9BDE84C
S214009108084029F002BABDE8084029F0F4B9BDE8DD
S214009118084029F004BA08BDA41B002010B586B084
S2140091280446FFF70BF8012830D1E278042A2DD838
S214009138DFE802F013323403030061790846FFF7CC
S21400914887FF58B31648032A00EB811050F80C3CEA
S21400915858791DD1003818BF012063784FF4807203
S2140091688DF804304FF48273ADF806300623ADF858
S214009178083001238DF80B3000238DF80A0001A86B
S214009188CDE903238DF81430FFF710F806B010BDAC
S214009198B0FA80F04009E0E70020DEE70220DCE7CE
S2140091A8A41B002010B586B00446FEF7C7FF0128AA
S2140091B830D1E278042A2DD8DFE802F01313320300
S2140091C8030061790846FFF743FF48B31548032AAA
S2140091D800EB811050F80C3C5B791DD11A1E18BFA5
S2140091E8012263788DF80A208DF804304FF48273D4
S2140091F8ADF806300623ADF8083001234FF4807228
S2140092088DF80B30002301A8CDE903238DF8143020
S214009218FEF7CCFF06B010BDB3FA83F25209E0E7BA
S2140092280222DEE7A41B002010B586B00446FEF72F
S21400923885FF012812D16378094A8DF804304FF467
S2140092488273ADF806304FF48073CDE9022300230D
S21400925801A804938DF81430FEF7A8FF06B010BDD9
S2140092680800070110B586B00446FEF767FF012818
S21400927820D16278104B8DF804204FF4827294F84F
S214009288A01094F8A10059701870ADF80620049341
S2140092984FF480720223094901A88DF81430CDE9ED
S2140092A80212FEF783FF94F8A130013B18BF012392
S2140092B884F8A13006B010BD605A002008000501E9
S2140092C810B58378044603B30379022B0AD1427992
S2140092D81046FFF7BDFE28B10C48013A00EB821095
S2140092E829F01DF9A379022B02D12046FFF716FFB5
S2140092F82046FFF7B7FF02236078A4F86C305522A3
S214009308BDE81040122128F021BF10BDA41B002084
S2140093184388094A082113808388538083681B8AF8
S214009328938090F8A03093718379D37100780430D5
S214009338C0B2FEF775BD00BF4A55002038B50D46C9
S21400934804460178114813F02FFA4FF602739D422F
S2140093580ED10F4B1B782BB963712046BDE83840F9
S214009368FFF7D6BF62790AB19342F6D20123F3E734
S214009378B5F57F4FF1D1204629F06AF9A378022B7C
S2140093880CBF01220022A3689A70E6E7E8D0030023
S214009398405A0020024B53F82000FFF7CFBF00BF0B
S2140093A84433002038B504460078144D04302A4665
S2140093B80821C0B2FEF724FD20B1BDE838401048A9
S2140093C813F0F2B92B8863806B88E978A380AA88A3
S2140093D8A3681A82AB7984F8A030EB79A371094B9D
S2140093E81B780BB9637138BD09B19942FBD9064899
S2140093F813F0DAF923780133F4E700BF4A55002062
S21400940802D10300405A00202BD10300F8B50446C9
S2140094180B78474A0D4642F823004370FFF7C2FF11
S214009428A268444BD465D364434B02265365434B2A
S214009438A11C13654FF44013E36001236161E162E8
S2140094483F49103221632265211D3E4AA1633E48EA
S2140094583E49626504F1A002A061E163E265E01C92
S214009468611D3B4A206261643A483B492266A21D58
S2140094782374237784F8283084F8343084F840300E
S214009488A16484F84C6084F8583084F864306062CC
S214009498A266E879AA6800EB400102EB810704F1AE
S2140094A80C0CC7F804C04FF0060C2C4F42F821707D
S2140094B8C118C9B201EB410142F821C002EB81078D
S2140094C800217960264F84F880302767254F84F876
S2140094D89830A767244F254BE767254F84F87460B4
S2140094E884F88C60C4F89C3004F16C06831CC4F8BD
S2140094F88470C4F890601F4F1F4EDBB203EB430323
S214009508C4F89460C4F8887002EB830670347460FC
S21400951808261A4C42F82340C31CDBB203EB43036D
S21400952802EB8304043042F823606160E871F8BDFA
S21400953844330020AF250300F9250300C992000034
S21400954801FF300104FF20011000300102FF200156
S21400955805FF300100FF300103FF21010700010865
S2140095684A00210002690400510010000469040042
S21400957805690400550021006F0018001200010458
S21400958800239B6AB3F5C04F03D21968064A914276
S21400959803D00023037083607047012202709A6824
S2140095A89B694260F7E700BF07B0CD5E024B034AEF
S2140095B81A602AF09DBA00BF0000002002020FF0D1
S2140095C873B5534B04461A781AB102221A7002B0C1
S2140095D870BDCDE900220028F9D001261E7032F0B1
S2140095E83DFF4C4D4C4B186017F0E0FA2B785BB9F2
S2140095F802F062FA40B949480823494A49490068CE
S21400960801F0A8FE00B92E70474B5A6E62619B6E39
S214009618464AA3614FF40043936603F188435968AA
S214009628E16143499960196E2160596E6160D3F80B
S2140096387011A160196CE160596C21613D49086C94
S2140096481864496C5964012151664FF400519166BB
S2140096581A6E560436D53849CA68D407FCD45B6EE9
S2140096685A0434D5354AD36B13F0430FFBD1344B29
S2140096781A68531C31D04FF400139340314A1366CE
S2140096880423304C684623664FF480632366102311
S21400969823664FF4005323664FF0804323664FF447
S2140096A8804301A9636628F0EBFF009B2366019BB5
S2140096B863662B78002B8AD0194B1A6822665B687B
S2140096C8636684E72049CA68D007FCD4C7E71F4A00
S2140096D8D36B13F0430FFBD1C9E71D4B1B78002B48
S2140096E8CED14FF48072114B5A661A4A52681AB98C
S2140096F84FF40011134A11664FF400725A66164B5F
S2140097085B68002BBCD14FF480020E4B1A66B7E795
S214009718635A0020645A00208C330020BC64002062
S2140097289033002000710800008000500090005020
S21400973855CEAC0000C00054000004400000024CA7
S2140097488864002000900044000004500000025C7A
S214009758625A002000C005500000065070B52C4D17
S21400976804462E78012E02D001232B7070BD0028E7
S214009778FCD028F0AAFF01300BD028F0A6FF40F254
S2140097880113984205D0234B234A5E66D368DE074A
S214009798FCD4224B22491B6E13F0040F4FF40053DF
S2140097A814BF1C4A1F4A9366CA6B12F04302FBD1C9
S2140097B821681A4B196661685966A168C3F8701162
S2140097C8E168196421695964E169C80748BF9A6065
S2140097D8154B1A6801320DD1144A127852B9144939
S2140097E84968C90748BF1A60124A5268D20744BF78
S2140097F801221A606269104B5A66A2699A6617F0C7
S214009808DDF90E4B186832F024FE0023ADE700BFE2
S214009818635A002000900040000004400080004486
S2140098280000024C0090005088640020625A002015
S21400983800C0055000000650008000508C33002001
S21400984870B50024A36AB3F5C04F23D21A68134B29
S2140098589A421FD1124E337813F0FD0518D14FF4F3
S21400986880341048FFF7ACFE032004F0B9FC0E4B1A
S2140098780320DC6004F098FC0C4B1C61AB6ADB69C7
S214009888984704460748FFF769FF0CB90123337069
S214009898204670BD4FF48174FAE700BF07B0CD5E6E
S2140098A8625A00206C33002000A000440090004458
S2140098B813B5204B1B7803B9FEE700231E4CCDE9F1
S2140098C800336A4608231D49206801F043FDF8B9AD
S2140098D81B4AD2F84031D2F840211F2B4FF0010323
S2140098E811D9203A9340019A1A43019208236A46EE
S2140098F81249206801F0B6FE124B134A1A602AF085
S214009908F7F802B010BD9340009A1A430092EDE7AC
S2140099182D28F1D10A4AD2F84031D2F840211F2B1F
S2140099284FF0010385BF203A93409340019398BFB8
S2140099380093DBE7635A0020BC640020007108002F
S21400994800800044000000200B020FF038B5002508
S214009958AB6A0446B3F5C04F10D21B6BB3F5C04FC5
S2140099680CD20748FFF72CFEAB6A20461B6B5B68D9
S2140099789847BDE838400248FFF7F0BE38BD00BF3C
S2140099889833002013B50024A36A0190B3F5C04F9E
S21400999813D21B6BB3F5C04F0FD20948FFF710FE62
S2140099A8A36A01211B6B01A89B69984704460448D3
S2140099B8FFF7D4FE204602B010BD4FF48174F9E7D5
S2140099C89833002070B50026B36A0446B3F5C04F36
S2140099D80D4612D21B6BB3F5C04F0ED20848FFF7E0
S2140099E8EFFDB36A20461B6B29469B6998470446D9
S2140099F80348FFF7B3FE204670BD4FF48174FAE7BC
S214009A089833002070B50026B36A0446B3F5C04FF5
S214009A180D4612D21B6BB3F5C04F0ED20848FFF79F
S214009A28CFFDB36A20461B6B2946DB699847044678
S214009A380348FFF793FE204670BD4FF48174FAE79B
S214009A4898330020F8B50027BB6A0446B3F5C04F24
S214009A580D46164611D21B6B7BB10948FFF7B0FDC1
S214009A68BB6A20461B6B324629465B6A9847044603
S214009A780348FFF773FE2046F8BD4FF40174FAE773
S214009A889833002070B50026B36A0446B3F5C04F75
S214009A980D4612D21B6BB3F5C04F0ED20848FFF71F
S214009AA88FFDB36A20461B6B29469B6A9847044677
S214009AB80348FFF753FE204670BD4FF40174FAE7DB
S214009AC898330020F0B50027BB6A0446B3F5C04FAC
S214009AD80D461646ADF5177D20D21B6BB3F5C04F65
S214009AE81CD21048FFF76CFDBB6A20461B6B40F281
S214009AF851225B6A01A99847044630B10948FFF726
S214009B082DFE20460DF5177DF0BD836A32461B6B89
S214009B182946DB6A01A898470446EFE74FF4017424
S214009B28EFE700BF9833002010B50024A36AB3F50A
S214009B38C04F10D21B6BB3F5C04F0CD20748FFF7C7
S214009B483FFDA36A1B6B1B6B984704460348FFF749
S214009B5805FE204610BD0124FBE700BF9833002011
S214009B68F0B58FB0044601A80E461546FFF7EEFE80
S214009B789DF80C30012B12D1B5F5002F27D8B4F577
S214009B88002F24D86319B3F5002F20D821462A467B
S214009B98304614F0B7F8002420460FB0F0BD002772
S214009BA8BB6AB3F5C04F15D21B6BB3F5C04F11D2C5
S214009BB80A48FFF705FDBB6A2A461B6B3146204656
S214009BC85B6B984704460548FFF7C8FDE4E740F294
S214009BD80244E1E740F20114DEE700BF98330020B4
S214009BE8F0B58FB0044601A80E461546FFF7AEFE40
S214009BF89DF80C30012B1FD1B5F5002F06D8B4F50B
S214009C08002F03D86319B3F5002F13D940F2024486
S214009C1820460FB0F0BDE258013225D104339D42EC
S214009C28F9D82A463146204600F082F80028EDD0BA
S214009C380024EDE70023F2E70027BB6AB3F5C04F20
S214009C4815D21B6BB3F5C04F11D20A48FFF7B8FC04
S214009C58BB6A2A461B6B314620469B6B98470446D0
S214009C680448FFF77BFDD3E740F20344D0E740F211
S214009C780114CDE79833002070B58EB0044601A8CD
S214009C880D46FFF763FE9DF80C30012B22D144EAFF
S214009C980503C3F30C03002B33D1B5F5002F04D905
S214009CA840F2024420460EB070BDB4F5002FF7D837
S214009CB82544B5F5002FF3D8204604F5005400F0E7
S214009CC829F8AC4202D00028F6D1E9E70028E7D008
S214009CD80024E7E70026B36AB3F5C04F14D21B6B1F
S214009CE8B3F5C04F10D20A48FFF76AFCB36A294694
S214009CF81B6B2046DB6B984704460548FFF72EFD8E
S214009D08D0E740F20444CDE740F20114CAE700BFAA
S214009D18983300204FF4003208B5044B9A6632F0A8
S214009D283FFEB0FA80F0400908BD00BF0090005022
S214009D38134610B562B103439B070BD14FF40034AA
S214009D48054B9C6632F028FEB0FA80F0400910BD3C
S214009D580120FCE70020FAE700900050BFF34F8F81
S214009D680549064BCA6802F4E0621343CB60BFF3AA
S214009D784F8F00BFFDE700BF00ED00E00400FA05C6
S214009D8870B5D0B1C9B10E4E431E013913F8014F54
S214009D982046325D02F00302012A11F8012F08BF9F
S214009DA804F12000B55C05F00305012D08BF20323C
S214009DB8801A01D1002CE9D170BD0120FCE700BF54
S214009DC89D9004000348044A0449121A921028F089
S214009DD8E1BC00BF406100001863000080610020FD
S214009DE808B5154B83F30A8800F030F8FFF7EAFF4A
S214009DF8124B13498B4212D30020124B12498B4246
S214009E0818D3FCF78FFF186850F82240586840F8B7
S214009E182240013298688242F5D30C33EAE70022E2
S214009E28F8E71C6844F8220001325C68A242F8D3BE
S214009E380833E4E70022F8E708000020C8CC04004E
S214009E48D4CC0400D4CC0400D4CC04004FF4004195
S214009E58134B144A70B59A60D3F88820124D42F412
S214009E687002C3F88820114A05F5005491664FF031
S214009E78FF3222664FF6DF7262660222C3F8D020EF
S214009E88BFF34F8FBFF36F8F4FF44036032004F0B5
S214009E98A7F90320E66004F087F92E6170BD00BFBD
S214009EA800ED00E0006000000080004400900050D4
S214009EB8054B1860054B1B6F03F00703032B01D1F6
S214009EC830F018BC704700BF98640020008000502F
S214009ED82DE9F04104464FF001080C250D4E0CB94B
S214009EE8BDE8F08194FAA4F0B0FA80F00F2808FADA
S214009EF800F2C8BF103824EA0204CABF05FB006295
S214009F0805FB0062B4325768002FE8D09168C0B2EB
S214009F18B847E4E7B833002008B50C4832F0BFFA73
S214009F28192004F04FF928B1192004F059F919201E
S214009F3804F03AF91A2004F045F928B11A2004F07A
S214009F484FF91A2004F030F9002008BD086B040009
S214009F582DE9F0410E461746054618B30F2923D8B3
S214009F680378DBB1013BDBB2022B19D8104AD35C6D
S214009F786A78D340DB0717D50E4BD3F81043ACB935
S214009F8832F06CFA80463A462846314603F064F8C2
S214009F98404632F05EFA2046BDE8F0817F23E7E7C8
S214009FA80023E5E72224F6E72124F4E70224F2E773
S214009FB85869040000C0035010B5044610B303786F
S214009FC8E3B1013BDBB2022B1AD8104AD35C6278A5
S214009FD8D340DB0718D532F041FA0122617823789E
S214009FE88A4030214B4341F2100103F1A04303F5A8
S214009FF870335A5032F02DFA002010BD7F23E6E762
S21400A0080023E4E72220F8E72120F6E75869040051
S21400A01810B5044610B30378E3B1013BDBB2022B5C
S21400A0281AD8104AD35C6278D340DB0718D532F0CA
S21400A03815FA0122617823788A4030214B4342F290
S21400A048100103F1A04303F570335A5032F001FAB9
S21400A058002010BD7F23E6E70023E4E72220F8E788
S21400A0682120F6E75869040038B50D46044618B3AB
S21400A07811B30378E3B1013BDBB2022B1AD8104ABE
S21400A088D35C6278D340DB0718D532F0E7F9302284
S21400A0982378534303F1A04303F570335B69627872
S21400A0A8D34003F001032B7032F0D3F9002038BDFB
S21400A0B87F23E6E70023E4E72220F8E72120F6E7F7
S21400A0C8586904002DE9F0410D46164698460446A0
S21400A0D800284FD000294DD00178002940D04B1ECB
S21400A0E8DBB2022B3ED8254AD25C6378DA40D20728
S21400A0F801D4FF2940D1022E01D9042E3CD132F0DA
S21400A108ADF923780746FF2B05D032462046296846
S21400A11802F0E8FF28602B68013309D12378FF2B6B
S21400A12806D1174B6078D3F8241429F004F9286070
S21400A13829684B1C18D00C23124A03FB0122069BE5
S21400A148C2F8048093602378FF2B04D001230E4ABC
S21400A1588B40C2F82434384632F07BF9002007E0FA
S21400A1687F22C2E70022C0E7384632F072F92D2077
S21400A178BDE8F0812220FBE72120F9E758690400B2
S21400A18800C00350B833002000D0035008B502F0D2
S21400A19859FF054B00F0553020F05020C3F8200436
S21400A1A8BDE80840FFF794BE00E0035008B502F08B
S21400A1B849FF054B00F0AA3020F0A020C3F8200481
S21400A1C8BDE80840FFF784BE00E003502DE9F04FD5
S21400A1D8144605460E469B46C36B87B001225B694C
S21400A1E802A960689847EB6B01225B6903A93046B1
S21400A1F8984702A828F0CDFE074648B10023A37565
S21400A20863754FF0FF33A360002007B0BDE8F08FFA
S21400A21803A828F0CBFE0123A375237E04EBC30313
S21400A228DE611F846368B3420ED1206003A828F05D
S21400A238DFFE4FF0FF332075A360237D043B022B1F
S21400A24826D80023A375DFE723681A1A534253411A
S21400A258A37503A828F0CCFE237D834218BFA775F4
S21400A26803A828F0A7FE074602A828F0A3FE874200
S21400A27818BF002303A818BFA37528F0A3FE074637
S21400A28802A828F09FFE87421CBF0023A375D4E7C8
S21400A29803A828F08FFE80B1EB6B022230465B697C
S21400A2A804A9984704A828F094FE0346207D0328AE
S21400A2B839D8DFE800F03838040903A8F3E7CC22D9
S21400A2C8237E04EBC3031A8401F06EFC109B1870FF
S21400A2D803A8277E28F062FE04EBC70787F822004B
S21400A2E8237E03A804EBC303B3F8209093F82270E8
S21400A2F828F060FE804603A828F064FE8246B8F17F
S21400A308000F15D0EB6B022230465B6904A998470C
S21400A31804A828F023FE6075637D6BB90023A37537
S21400A3284FF0000838E0227E04EBC2021384CBE725
S21400A33803A828F0FEFDEEE794F81680B8F1000FA3
S21400A348EED0B9F1000F09D1DFB10123E375637EC2
S21400A358002B4FD1012F42D1677614E06B6C06EBC9
S21400A3680A015A4286EA010010421CBF0022A27562
S21400A3785A1E0A409B1A9945D0D8A37D002BE3D1D4
S21400A388CEE7E37D43B94FF000084B4652463146C8
S21400A398284628F049FBA060A27D12B123694B44E9
S21400A3A823611A49237E097899422AD901332376EC
S21400A3B8BBF1000F27D032B3E37D23B3B8F1000F0B
S21400A3C821D1032F1FD0A1684B1C1CD0109B2246FE
S21400A3D8009328460123FFF7F9FEA07513E095F8C9
S21400A3E8343063B9EB6A0133CFD1032FCDD10123C3
S21400A3F8A376C8E7012FCFD0032FC4D1F7E7984636
S21400A408C3E70023A375A07DFFE600BF7C690400B0
S21400A4182DE9F04F0E46984600238BB004464FF0C1
S21400A428FF31104617468DF8133001F0A7FBB6F536
S21400A438801F20D2314605AA04F1080028F0FBFC4C
S21400A448451C014603D1237CBBB92D2010E03846B5
S21400A45801F094FB0122394620460DF1130328F03B
S21400A46835FB0028EFD09DF8133088F80030002020
S21400A4780BB0BDE8F08FB01CE5D1E56A691C36D193
S21400A4882046616A28F016FA0546B31C18BF012351
S21400A498DFF8CC900193636A626C0293236805A97F
S21400A4A802FB053AE36B05225B695046984705A808
S21400A4B828F00AFE28F02DFE504628F035FE4FF00C
S21400A4C8000B824601464B1C05D0636C81EA0A02E3
S21400A4D85B42134211D02946204628F0EBF9029B2E
S21400A4E8AB422CD0BBF1000F2CD10546D3E723682E
S21400A4F8ED1A636CB5FBF3F5C7E7484601F03EFB7B
S21400A5080DF1130349462046019A28F0DFFA034660
S21400A51890B1B21C03D0D9F80020B2420CD19DF8F5
S21400A528132003930D4B88F8002049461A683846CE
S21400A53813F0E8FB039B9B46D9F80810C3E7BBF16A
S21400A548000F82D0B6F5801F91D2314698F80030B9
S21400A5587A6804F1080001F03FFA88E77869040091
S21400A568943B00202DE9F3410446174698460E46CC
S21400A578184D816AE36A8B4201D04B1C02D102B0A7
S21400A588BDE8F081284601F0F9FA0122294620465E
S21400A5980DF1070328F09AFA38B1434629462046B3
S21400A5A89DF80720B8470028E9D0A9684A1C04D1B6
S21400A5B86968204628F00BFA0146012EDAD16B6846
S21400A5C881EA0302636C5B421A4218BF4FF0FF3100
S21400A5D8D0E700BF683B00202DE9F04F4FF0FF336F
S21400A5E84FF6FF720025044600F10806C0E9092365
S21400A5F88BB0C362056205633046884628F0ECFBDC
S21400A608204628F027F960BB2046414628F0A2F9E4
S21400A618204628F01FF960BB5E200BB0BDE8F08F1F
S21400A6282368E26B606C576900FB0530052205A9B4
S21400A638B84705A828F048FD012807460CD1294642
S21400A648204628F058F9012F024600D10132294643
S21400A658204628F01EF903E028F060FD0028EED119
S21400A6680135E3699D42DBD3204628F0F3F800283D
S21400A678CAD000254FF0FF394FF6FF73CA46A846E2
S21400A688C4E90853E36998450AD3A5EB0905012DE3
S21400A6982CD84FF6FF72636A93423CD16720BCE71A
S21400A6A82368E26B606C576900FB0830052205A931
S21400A6B8B84705A828F008FD834605A828F0DBFC5F
S21400A6C80746584628F025FD68B1574538BFC4F8F0
S21400A6D82480B94528BFB946BD4238BF3D46BA466C
S21400A6E8236A0133236208F10108CBE74FF6FF73AC
S21400A6F800256362E3699D42CBD2676C2068E36BF2
S21400A708052207FB05005B6905A9984705A828F0F8
S21400A718B2FC0135EEE7E26B676C2068694607FB1A
S21400A728030055690522A847684628F0A4FC626A13
S21400A7382368606C4B4D00FB023028F0F5FC4FF0A8
S21400A748FF33A062E3622A466FF00101204605AB9C
S21400A758FFF75EFE002846D1AD6829462046E5622A
S21400A76828F054F8206320B92046E16A28F02FF92B
S21400A778E0622946204628F02AF90546A36A9D4243
S21400A78833D1204628F015F800278046B946E369F5
S21400A79899453CD3B84559D92046616A28F08AF8C5
S21400A7A80026054604F1400AB74212D8626C2368B0
S21400A7B8694602FB0539E36B05225B6948469847FC
S21400A7C8684628F058FC534602464946E06B28F08F
S21400A7D8ADFC2946204628F06DF80136B0450546FA
S21400A7E8E2D1642019E7A56AB7E72946204628F08B
S21400A7F80DF8236B2946034407462363204628F0B2
S21400A808E6F80546002FB9D1C4E90B07B6E7636C2E
S21400A8182568052203FB0955E36B05A95B692846ED
S21400A828984705A828F050FC28F073FC58B128462D
S21400A83828F07AFC0146204627F0E8FF636C143BB4
S21400A848984208BF013709F10109A0E7304628F009
S21400A858C3FA002320461946034AFFF783FE002062
S21400A868DBE600BFC03B0020C32A03002DE9F04109
S21400A878036B9046826B07689A4288BF8363426C74
S21400A888436A90B002FB0377C36B0E46052201A904
S21400A8985B6904463846984701A828F015FC012845
S21400A8A80146307057D0656CE26B2368606AD2F850
S21400A8B814C005FB0030052206A9E04706A828F0C4
S21400A8C803FC01284FF0000523D0D4E90A32012101
S21400A8D89342CDE90B458DF834800E958DF83C10E3
S21400A8E82AD11946204628F072F8236B626C143376
S21400A8F89B1AE06223630C9B53B99DF83C303BB12E
S21400A908626A616C2368E06B01FB023128F094FBF5
S21400A9180C9DE36B05225B6901A93846984701A898
S21400A92828F0D2FB30702846236BA26B9A4288BF69
S21400A938A36310B0BDE8F081237C33B91C490BAA89
S21400A94804F1080001F096F8D5E72046194A0BAB43
S21400A958FFF708FECFE7237C23BB2246164904F1FF
S21400A968080001F087F8616A204627F0C4FF616A8C
S21400A978421C204627F08DFF054620B9236B626CE3
S21400A9881344143B23632046A16A28F020F8236862
S21400A998A062C01A636CB0FBF3F06062204628F031
S21400A9A859F8B6E700232046044AFFF7DBFDDAE746
S21400A9B819B1000095B000005D2B0300F92A0300CA
S21400A9C873B50D46D11E4A421C461B7E4A419A4222
S21400A9D826D129682368994222D3636899421FD8EA
S21400A9E8114E0DF107033246FFF712FDC0B9726823
S21400A9F86B689A4214D19DF80730DA1E53425341C9
S21400AA08227E93420CD1636901336361D4E9032340
S21400AA18934205D22968A26842F8231001332361BD
S21400AA28012002B070BD00BFC03B00202DE9F04FEA
S21400AA389B4689B09DF848309046514A0193136961
S21400AA4807465B450D46C0F09580D9465368009387
S21400AA58B9F1000F7BD0FB6B01225B6905A9009852
S21400AA68984705A828F0A2FA454B1B68984240F07C
S21400AA78848005A828F0A6FA0428064615D105A855
S21400AA8828F0A7FA009B04461E44019B002B3ED1E3
S21400AA98804512D91C46A8EB00083846009927F0CE
S21400AAA896FFA9EB04090090D2E7FB6B02225B69CC
S21400AAB8009806A9984706A8E2E7A0EB08045C45B4
S21400AAC828BF5C46032C4644ABEB040B1DD9FB6B36
S21400AAD8294630465B69A208984724F0030304F029
S21400AAE8030A1E441D44DDF80480BAF1000FD4D0D2
S21400AAF8FB6B012206A930465B69984752462846F2
S21400AB0806A913F0FFF85544C7E7A246EBE78246C6
S21400AB1800F0030302932B1803930644039BA6EB4B
S21400AB280A00A3EB0A05029B9A4514D1BAF1000F56
S21400AB38B3D0FB6B012206A95B69984752462846A4
S21400AB4806A913F09BFA0028DDD04FF036094846D0
S21400AB5809B0BDE8F08FFB6B012206A95B69984730
S21400AB680422284606A913F089FA0028EDD1AAF18E
S21400AB78040AD3E74FF06309E9E74FF06F09E6E701
S21400AB88EC3B00202DE9F0410F4616469846044651
S21400AB9888B060B390F83450FDB1012127F04FFE1D
S21400ABA800210E9BCDE90511CDE902379DF83C3012
S21400ABB8CDF804808DF81C30237C04968BB90D499B
S21400ABC801AA04F1080000F055FFDDE90553E06B23
S21400ABD8002E08BF1D4627F0CBFF284608B0BDE864
S21400ABE8F0812046044A01ABFFF7BCFCEDE70546BA
S21400ABF8F3E700BF272B0300C9A900007FB590F82C
S21400AC084260044601920DF10B030A46304611498C
S21400AC1827F0B6FF012E0546E36B17D132465B696F
S21400AC2803A998479DF80B10039B019A59B19BB24C
S21400AC3843EA0243012228460393E36B03A99B6970
S21400AC48984704B070BD62F30F03F3E701229B69CF
S21400AC5801A9F5E7EC3B00202DE9F04F99B00E4628
S21400AC680D920A69416C0B931439D31DB3FBF1F3AB
S21400AC78013302EBC302036B04469342C0F0018221
S21400AC880023DFF804940893E36A484619460593B8
S21400AC9800F074FFD6E9033707930B9B022B4DD1C0
S21400ACA8CC2F40F0D7810D9B3BB13146204627F08C
S21400ACB8BDFF656C1490012044E00120079B656C7D
S21400ACC81B68149300F0010000280CBF0423082317
S21400ACD8782F0E9349D8059A6B1E1340ED1A3B1D24
S21400ACE89D423CD2002F3DD0082D3ED80023042597
S21400ACF806934FF0040A336806990B98C9F8003093
S21400AD08C9F8107028F078F94FEA9A030F93059B54
S21400AD1889F814000393002309930C9304930A9369
S21400AD28616C039B4A1E1A408B1A27B35544AB42E4
S21400AD3823D8236B5B1A134423632FE1782F656CA3
S21400AD48B9D8F07D0D9B002BBCD0E36B01225B6964
S21400AD58706816A9984716A828F02CF9B4E70025B5
S21400AD680695C6E704250697C3E7012300254FF096
S21400AD78080A0693BFE75345DBD3A3EB0A029742BC
S21400AD88039BB84628BF90469742534428D90122C9
S21400AD98D9F8101089F817208F4226D10399C9F8D8
S21400ADA80410049299F817200AB399F81810039813
S21400ADB8CA1C09EBC202506004980131A2F8088048
S21400ADC8907289F81810B8F1000F07D00B9A022A6B
S21400ADD840F08180099A72B1012209929B46ABE045
S21400ADE8049A002A18BF0322DBE70222D9E7039A4F
S21400ADF8C9F80420E7E70C9A4244032AEED9E26B26
S21400AE081846956914A901220993A847099B05467F
S21400AE180028E1D03D2D40F01E8104F1080303937D
S21400AE282368059A606CA2EB030ABAFBF0FA00FBEB
S21400AE380A3028F079F9E16A8046204627F0C7FDEF
S21400AE48A26A824200F00F81626CD9F80830511E5F
S21400AE580B40216B2768891A0B442363089BE06222
S21400AE68DF1BB7FBF2F7BA4540F0FA80059BB3EB59
S21400AE78080A12D0E36B4FEA9A0241469B69984744
S21400AE888346E36A059A5344E362236B03989B1A46
S21400AE984344236327F0A0FFDA462368616CE06B1F
S21400AEA801FB073128F0B5F8204627F0D3FC2046EA
S21400AEB827F0D0FD2063BAF1000F00F0D480326985
S21400AEC8616CD31D1439B3FBF1F3013302EBC302F3
S21400AED89042A5D2BFE00D9A002A77D1B8F1030FA9
S21400AEE84FEA98026ED9E16B18468D690799109358
S21400AEF8A847109B0546C0B918F0030515D0079A51
S21400AF0828F0030B02EB0B019B444FF0FF3215A809
S21400AF1815922A46109312F0F5FEE26B584695698C
S21400AF2815A90122A8470546109B9B46079A424446
S21400AF380792002D40F08B80049B16A80193069B71
S21400AF48009399F814204346316800F0CDFDE36B72
S21400AF580F9A9B69039816A99847039A051E089B9B
S21400AF6818BF13460893434652462046039927F0CF
S21400AF785BFD236B08F10302A3EB0A0322F003022E
S21400AF889B1AC9F808002363002D7FF443AF0C9B77
S21400AF98A7EB080743440C93CDF80CB0204603995A
S21400AFA827F015FD00250390002F7FF4B9AE364A2A
S21400AFB83168936804F10800E36252680B9B00F05E
S21400AFC80BFD49E09B46454607999EE79B4606F1DA
S21400AFD820021092F27D7068A2B1002296F818C07E
S21400AFE80A99D5B2AC4511D9109D02F1010E35F873
S21400AFF832508D4228D90E9806EBC2020144D06919
S21400B008084403E00E9A0A990A441044E26B15A90C
S21400B018556901221193A847159A0A9B1392E26B69
S21400B028043395695846012213A90A93A847119B29
S21400B038054603EB0802A2EB0B02042A7FF679AF5B
S21400B04828B90BF1040BC5E77246491BC9E7CDF8CA
S21400B05820B088E770252F46384619B0BDE8F08F2F
S21400B0684FF0000A19E73269616CD31D1439B3FB37
S21400B078F1F3013302EBC302236B9342BFF404AE31
S21400B088E9E71C27E8E700BF943B0020032A2DE9E0
S21400B098F34106460D4617461C4606D1237A012B71
S21400B0A823D0012002B0BDE8F081DFF8608009688F
S21400B0B842460DF10703FFF7ABF960600028EDD1B3
S21400B0C89DF80720237A032AE8D0D8F804106A687F
S21400B0D89142E3D1012B2969D4F80CC007D17269D3
S21400B0E80CEB0103934202D92074207CDAE708317E
S21400B0F86144E1603B46012229463046FFF7ACFD35
S21400B10860600028CAD00020CCE700BFC03B002003
S21400B1182DE9F341089C032A1746266806D1237AA8
S21400B128012B24D0012002B0BDE8F081DFF8908022
S21400B138304642460DF10703FFF76AF960600028BB
S21400B148EDD12568D8F80400A96AD5F844C0484067
S21400B158CCF100031840227AE1D1012A09D1E2682D
S21400B168D8F8103013447269934202D92074207CB0
S21400B178D9E72868EB6A1B1A081AB3FBFCF3B0FB7E
S21400B188FCF083420BD1706CF36A421E1340326B9C
S21400B198121A13442846336327F019FCE862D8F8D5
S21400B1A81020E36808321344E36001223B46044952
S21400B1B82068FFF751FD60600028B0D00020B2E795
S21400B1C8C03B00202DE9F0410025604B0E46D3F821
S21400B1D8008004461D6018B921252846BDE8F08180
S21400B1E890F8347007B30A6803689A4240F0A38060
S21400B1F84A6843689A4240F09E808A6883689A4202
S21400B20840F09980CA68C3689A4240F094800A69F8
S21400B21843699A4240F08F808A69C36B9A4240F02D
S21400B2288A804B698361D8E768223946856B12F0B5
S21400B238D9FBD6E90212336804F108002360736864
S21400B248A5636360336963617369A36127F0D6FDFC
S21400B258B36904F14000E3639B68984720B9676CBC
S21400B26817B16368B3FBF7F794F84330E761002B30
S21400B278B2D00023656C2366002D64D0002F62D000
S21400B2882368B3FBF5F205FB1233002B55D166682D
S21400B298B6FBF5F305FB1363002B4ED1204627F0CB
S21400B2A8A5FAA369043303449E4248D340F6347291
S21400B2B86369CC3B934244D8B5F5805F43D30321FA
S21400B2C8204627F0BCFAD4E90001E36B1B689847D0
S21400B2D80546E36B0220DB689847CDB94146204611
S21400B2E8FFF77AF96428054604D141462046FFF759
S21400B2F873F90546666C5DB9236A2046143E5E43BC
S21400B30827F074FAA369043303449E4238BF5A25CB
S21400B318002D0CBF0123002384F8343007D1D4E96C
S21400B32800010B4A13680133136027F001FEE06B37
S21400B33827F01EFC51E75D254FE759254DE75A25AE
S21400B3484BE75F2549E75B2547E700BF2435002024
S21400B358203500202DE9FF410C4616461F460546B7
S21400B36880B390F834307BB3B1F5801F2ED2DFF867
S21400B3786080012127F063FA2146424628460DF1EF
S21400B3880F03FFF745F8044670B99DF80F30012BF8
S21400B39811D1D8F81030BB4212D10246009031467F
S21400B3A82846FFF743FB0446E86B27F0E1FB2046F8
S21400B3B804B0BDE8F081022B14BF2D246024F3E707
S21400B3C86324F1E72124F2E71124F0E72924EEE7C5
S21400B3D8EC3B00202DE9F04385B00C4617461E4688
S21400B3E80546DDF8308098B390F8343093B3B1F55D
S21400B3F8801F31D2DFF86490012127F020FA214619
S21400B4084A4628460DF10F03FFF702F8044688B9A6
S21400B4189DF80F30012B14D1D9F8102006EB08033D
S21400B4289A4213D300904346324639462846FFF7D9
S21400B438FDFA0446E86B27F09BFB204605B0BDE8FE
S21400B448F083022B14BF2D246024F3E76324F1E76E
S21400B4582124F2E71124F0E72924EEE7EC3B00204C
S21400B46873B50C461646054630B390F834302BB301
S21400B478B1F5801F24D2012127F0E1F9214628469C
S21400B488104A0DF10703FEF7C3FF044680B99DF87E
S21400B4980730032B0CD0022B0CD12846094927F07D
S21400B4A8C5FB3060E86B27F063FB204602B070BD32
S21400B4B82D24F7E76124F5E72124F6E71124F4E7BD
S21400B4C82924F2E7EC3B00202DE9F3411E46002331
S21400B4D80C4617460546336050B390F834304BB3E5
S21400B4E8B1F5801F28D2DFF85480012127F0A7F98C
S21400B4F82146424628460DF10703FEF789FF044613
S21400B508A0B99DF80730032B10D0022B03BF0123E8
S21400B5183B600423D8F8103018BF38603360E86BF7
S21400B52827F026FB204602B0BDE8F0812D24F6E77A
S21400B5382124F7E71124F5E72924F3E7EC3B00205C
S21400B54873B50446056B27F051F9636E03449D42B4
S21400B5582CBF00230123854294BF00252D1A207C8A
S21400B56884F85030656584F85800A8B100230C4E5E
S21400B5781A4619462046009627F01CFC0023054666
S21400B5881A4619462046009627F01DFCE36828440C
S21400B598984294BF0020C01AE06502B070BD00BF94
S21400B5A8FFFF0F002DE9F3471E4643690446B342E2
S21400B5B8884617469DF828904ED300258DF80750E4
S21400B5C8204627F013F9D4F830A082450AD2236A19
S21400B5D8B5EB430F06D2002220460DF10701FFF710
S21400B5E845F9B8B39DF80730012B05D1002220464F
S21400B5F80DF10701FFF73AF9B9F1030F06D0314606
S21400B608204627F0E3F8256B854227D3144D4FF0E4
S21400B618FF31284600F0B2FA4B462946002220465B
S21400B628C5E90376C5F80080FFF716FB236E0546C6
S21400B63863B12046FFF784FF94F8503013B994F8A6
S21400B64858301BB1236E04F150009847284602B0C4
S21400B658BDE8F0870135B3E76225F7E71C25F5E76F
S21400B668C03B00202DE9FF410F4690461E46054682
S21400B67898B390F8343093B3B1F5801F31D21A4C92
S21400B688022127F0DCF82246394628460DF10F033A
S21400B698FEF7BEFE024678B10123424600933946BD
S21400B6A833462846FFF77EFF0446E86B27F060FA25
S21400B6B8204604B0BDE8F0819DF80F30012BEBD191
S21400B6C82169B142E8D10093414633462846FFF740
S21400B6D8ADF904460028DFD1E7E72124E8E711247E
S21400B6E8E6E72924E4E700BFEC3B00202DE9F04715
S21400B6F890F8423086B0012B05460391A1EB02076D
S21400B70840F0AA80FF2F03D81E464FF0640807E0D3
S21400B7180226012B14BF4FF032084FF0640801369A
S21400B72800244FF6FF79DFF844A195F84230012B44
S21400B73814BF322364239C4202D35FFA88F40DE0D8
S21400B74805AB22465146284627F04EFA95F8423071
S21400B758012B059B34D14B452DD1E4B295F84230E8
S21400B768012B14BF32226422121BB24217D3012EB9
S21400B77839D10022012B05978DF8132027D10822EE
S21400B78805A90DF1130027F0EBFC9DF81330059A78
S21400B79842EA032221462846FFF730FA40B1022340
S21400B7A8324900932846CC23096803AAFFF7FAFE15
S21400B7B806B0BDE8F087DBB203B902340134B4E75B
S21400B7C8591CCAD09BB2002BF8D10134F6E71022D8
S21400B7D805A90DF1130027F0C3FC9DF81330059A50
S21400B7E842EA0342D6E7039A012B059223D108239F
S21400B7F8202205A90DF113008DF8133027F0B0FCB0
S21400B8089DF81320120221462846FFF7F7F995F807
S21400B8184230611C012BC9B21AD10028BFD1284674
S21400B828BDF81420FFF7EAF90028B8D10234BDF8AD
S21400B8381620E1B2AFE71023202205A90DF1130068
S21400B8488DF8133027F08CFC9DF813201204DAE7E5
S21400B8580028A4D1059A9EE7B7F5803F4FF0010669
S21400B868BFF457AF4FF032085AE700BFEC3B002052
S21400B87870B586B00E4605460392A0B390F83430ED
S21400B8889BB3B1F5801F32D2022126F0D8FF31468D
S21400B8982846184A0DF11703FEF7BAFD044618B9EC
S21400B8A89DF81730032B0ED1022331460093284605
S21400B8B8CC2303AAFFF776FE0446E86B27F058F970
